:100000000C94E9000C9411010C9411010C94110151
:100010000C9411010C9411010C9411010C94110118
:100020000C9411010C9411010C9404160C94731689
:100030000C9411010C9411010C9411010C941101F8
:100040000C9411010C9411010C9411010C941101E8
:100050000C9411010C9411010C9411010C94E717EC
:100060000C9411010C9411010C9411010C941101C8
:100070000C9411010C9411010C9411010C941101B8
:100080000C9411010C9411010C9411010C941101A8
:100090000C9411010C9411010C9411010C94110198
:1000A0000C9411010C9411010C94110106C0FF0A6B
:1000B000000CA1017508150026FF0095400901817B
:1000C00002954009029102C00403090412010002D2
:1000D000000000406D0439C50204010200015251C4
:1000E0005233392E30365F4230303430004C6F6737
:1000F000697465636800383836344338464532429F
:1001000046303233443500555342205265636569A9
:10011000766572000000000200090F000003040170
:10012000000C0000000000000000000000000000C3
:1001300000000000000000250028002B002E0031E8
:100140000000000000240027002A002D00300004D9
:10015000040404040304050202020204030202026E
:100160000206060606060604040202020404040847
:1001700002011040804010204080408008020401AD
:10018000804020100201108010204040200501090D
:1001900002A10185010901A100050919012905151F
:1001A0000025017501950581027503950181010501
:1001B000010930093116018026FF7F7510950281F3
:1001C0000609381581257F750895018106C0C00094
:1001D0001F1911241FBECFEFDAE0DEBFCDBF24E030
:1001E000A8EAB1E001C01D92AA34B207E1F711E01C
:1001F000A0E0B1E0EAE4FDE302C005900D92A83A68
:10020000B107D9F710E0C9EED0E004C02197FE0194
:100210000E94881EC83ED107C9F70E94D51A0C94C7
:10022000A31E0C9400008CBD9DBD089590E0FC01C0
:10023000E259FE4F2491815B9E4FFC0184918823FB
:1002400099F090E0880F991FFC01EF5BFE4FA5919C
:10025000B491FC01ED5CFE4F859194918FB7F894B9
:10026000EC91E22BEC938FBF08954091CE01509119
:10027000CF012091CC013091CD0142175307B4F446
:100280009091E8009570E1F39091E80092FD19C01B
:100290008093F1008091CE019091CF0101968F73F0
:1002A0009927892B19F48EEF8093E8008091CE0175
:1002B0009091CF0101969093CF018093CE0181E080
:1002C000089580E00895DF92EF92FF920F931F93BD
:1002D000CF93DF93D82E8A01EB017B01E40EF51E4C
:1002E000CE15DF0559F0D7FE12C0FE0184910E94A1
:1002F000350121968111F4CF0FEF1FEFC801DF9177
:10030000CF911F910F91FF90EF90DF90089588811A
:10031000EECF615030F02091F100FC012083019676
:10032000F8CF289884E68093D0010895AF92BF92C9
:10033000DF92EF92FF920F931F93CF93DF935C01B5
:100340008B01EB019BEFD92E2097C1F07E01C134C8
:10035000D1051CF080E4E82EF12C8091E80082FFAA
:10036000FCCFC8018C1B9D0B6E2D8A0D9B1D0E941E
:100370008901D092E800CE19DF09E6CFC801DF91EC
:10038000CF911F910F91FF90EF90DF90BF90AF90B2
:100390000895AF92BF92CF92DF92EF92FF920F93A8
:1003A0001F93CF93DF936C017B018B01040F151F0B
:1003B000EB015E01AE18BF08C017D10759F0699173
:1003C000D601ED91FC910190F081E02DC6010995D7
:1003D000892B79F7C501DF91CF911F910F91FF9084
:1003E000EF90DF90CF90BF90AF9008958091BD01C6
:1003F00081110BC01092B90181E08093BA01109273
:10040000BC011092BB018093BD0189EB91E008957E
:100410000F931F93CF93DF931F92CDB7DEB719824F
:100420000E94F601DC0112960D911C910115110537
:1004300089F0D801ED91FC910280F381E02DBE019D
:100440006F5F7F4FC801099597FD04C0F8010085D3
:100450001185ECCF89810F90DF91CF911F910F9182
:100460000895CF93DF93FC01DB01818114963C91C9
:100470001497682F630F7727771F683071059CF5F5
:10048000C281D381209739F5B383A28390811296DC
:100490009C93129713968C93139715968C9115979E
:1004A000890F808390E080E0831708F52181C22FB7
:1004B000D0E0BE016B537E4F16964D915C9117971D
:1004C000480F591FEA014881EB0148832F5F2183C0
:1004D0000196EACFEA014885598541155105D1F7C2
:1004E000B987A887D3CF80E0DF91CF91089581E0CD
:1004F000FBCF3FB7F8948091B5019091B601A091E0
:10050000B701B091B80126B5A89B05C02F3F19F0DF
:100510000196A11DB11D3FBFBA2FA92F982F882783
:10052000BC01CD01620F711D811D911D42E0660F5E
:10053000771F881F991F4A95D1F708958F929F9230
:10054000AF92BF92CF92DF92EF92FF924B015C018C
:100550000E9479026B017C010E9479026C197D096D
:100560008E099F09683E734081059105A8F321E03B
:10057000821A9108A108B10888EEC80E83E0D81E3F
:10058000E11CF11C81149104A104B10429F7FF902E
:10059000EF90DF90CF90BF90AF909F908F90089595
:1005A0006F927F928F929F92AF92BF92CF92DF9283
:1005B000EF92FF920F931F93CF93DF93C82E8B017F
:1005C0007A018091D401811111C08FEF9FEFDF91EB
:1005D000CF911F910F91FF90EF90DF90CF90BF9040
:1005E000AF909F908F907F906F9008958091D201EF
:1005F00080FF05C08091E00082608093E000CE2DF6
:10060000DF2DD12C8AEFB82E8C2D8770982E90E498
:10061000892E8C2D8072782E8C2D8074682E2AE382
:10062000A22E209719F4DD2009F45DC08FB7F8944D
:100630009092E9009091E80095FD0BC08FBFBA94AD
:10064000BB2019F261E070E080E090E00E949E0221
:10065000E8CF9091F200282D291B8FBF222379F338
:100660002C171D0611F00CF02C2F3FB7F894909228
:10067000E9008091E80085FD02C03FBFD2CF822F04
:1006800090E0C81BD90B772029F02150A0F01092E0
:10069000F100FBCFF801C7FC0AC0215050F0419196
:1006A0004093F100FACF44914093F10031962150EC
:1006B000D0F7080F191FDD2021F0A092E800D12CFF
:1006C000DCCF8091E80085FD07C0A092E800DD2422
:1006D000D394209791F2F3CF209779F6662069F2B0
:1006E000A092E800CACF5D9884E68093D101C7014B
:1006F0006ECF2FB7F8946091B1017091B2018091E3
:10070000B3019091B4012FBF08950F931F93CF931E
:10071000DF93EC01FB012A8184819581281719065A
:1007200041F491818081813A31F49D7F81E0913063
:1007300049F080E007C08132E1F79B3041F48281CB
:100740008F8B81E0DF91CF911F910F9108959A30A7
:1007500019F48381888FF5CF993059F70681178175
:100760008381833081F489A19AA10817190709F7B9
:10077000B8018F8D98A10E94960189A19AA19068D5
:100780009AA389A3DECF8230A1F68B8D9C8D892B15
:1007900081F6898D9A8D801791075CF2801B910BF1
:1007A0002D8D3E8DB801820F931F0E9496011C8FE4
:1007B0000B8FC7CFFB0120812138B1F42381223276
:1007C00099F4DC0112964C911297248135814217DD
:1007D000130651F421E057962C934CE150E06CEA5B
:1007E00070E080E80C94630190E080E00895CF937E
:1007F000DF93CDB7DEB769970FB6F894DEBF0FBEB3
:10080000CDBFFC01DB019C919F5F9C939E012D5FFE
:100810003F4F81E1D9011D928A95E9F729E02983AB
:1008200084E08A8391E09D8383E08E832A8721E29E
:100830002B879C879D879F8722E2288B2CE1298B21
:1008400027E02B8B25E02C8B8E8B20E430E0388F3B
:100850002F8B998F82818B83838180688D8B49E177
:1008600050E0BE016F5F7F4F80E00E946301699698
:100870000FB6F894DEBF0FBECDBFDF91CF910895C4
:10088000CF93DF931F92CDB7DEB76983DC01ED9183
:10089000FC910288F389E02D41E050E0BE016F5FDA
:1008A0007F4F09950F90DF91CF9108950A970C948F
:1008B000400408950895DC015B968D919C915C97AE
:1008C0001816190674F459962D913C915A97281BC5
:1008D000390B5D96ED91FC91E20FF31F808190E062
:1008E00008958FEF9FEF08950A970C945B04FC0125
:1008F000438D548D141615068CF4858D968D218D9F
:10090000328DBA0161507109748F638FF901E41B54
:10091000F50BE80FF91F808190E008958FEF9FEFAE
:1009200008950A970C947704FC018189928997FFB6
:1009300002C090E080E00895FC01838D948D97FFC4
:1009400002C090E080E00895FC0182818F5BFB0192
:10095000808381E00895DC01FB0112962C911297AF
:10096000848195812817190641F491818081813A0B
:1009700031F49D7F81E0913009F080E0089581326B
:10098000E1F79B3029F482811F968C9381E00895D2
:100990009A3099F7828150968C93F8CFDC01FB0155
:1009A00088E4808389E4818384E482831D969C911A
:1009B0001D979F709F5B93831D968D919C9124E062
:1009C000969587952A95E1F78F708F5B848385E0F4
:1009D0000895EF92FF920F931F93CF93DF93FB0144
:1009E0002081213871F52381223259F5DC011296DC
:1009F0004C91248135814217130619F5EC010B85C2
:100A00001C85F12CE12C0115110589F0F8014481B8
:100A100055816281738180E80E9463018F3F98074E
:100A200049F0E80EF91ED8010D911C91ECCF81E040
:100A30008F87C701DF91CF911F910F91FF90EF90AA
:100A4000089590E080E0F6CFCF93DF93CDB7DEB787
:100A500069970FB6F894DEBF0FBECDBFFC01DB0176
:100A60008C918F5F8C939E012D5F3F4F8DE0D9015C
:100A70001D928A95E9F729E0298384E08A8391E031
:100A80009D8383E08E839F8332E038872A8721E22B
:100A90002B8721E12C879D879F8722E2288B27E0E7
:100AA0002B8B25E02C8B8E8B20E430E0388F2F8B26
:100AB000998F82818B8395858685998B8A8B83819B
:100AC00080688D8B49E150E0BE016F5F7F4F80E011
:100AD0000E94630169960FB6F894DEBF0FBECDBFCA
:100AE000DF91CF9108950F931F93CF93DF93FC0174
:100AF0008B01EA0180819181892B31F192819923C7
:100B000049F128813981232BF9F0D8012D913C91AD
:100B1000D9014C918381682F691B770B808191816A
:100B2000860F971FDC014C938281815082838881DC
:100B30009981019799838883D8018D919C91119710
:100B400001968D939C93DACF80E0DF91CF911F9136
:100B50000F9108958381828381E0F7CF3F924F9276
:100B60005F926F927F928F929F92AF92BF92CF923D
:100B7000DF92EF92FF920F931F93CF93DF9300D0FA
:100B800000D0CDB7DEB76C017A8369835C834B8379
:100B900084E0482E360182E1680E711C93E0392E04
:100BA0005601A7E0AA0EB11C12E055245394460149
:100BB000B0E18B0E911C29813A812115310509F490
:100BC000CBC0F60180A18230F1F0A8F5882309F4AA
:100BD00057C0813091F7AE014F5F5F4FBE016D5F2F
:100BE0007F4FC5010E947305882309F4B5C0D60163
:100BF0001596ED91FC911697808191968C93919723
:100C0000818192968C93F6017682658230A2D6011C
:100C100092968C919297843011F493961C92F601DF
:100C200081A1825084832581368130872783828702
:100C3000818740A205C0833051F3843009F0BDCFD5
:100C4000D60192968C919297843019F1853009F4EF
:100C50004CC0823009F073C0AE014F5F5F4FBE01E0
:100C60006D5F7F4FC5010E947305882309F474C02E
:100C7000F601858984A3F6019682858210A29BCF16
:100C8000148385819681908787831287118750A26C
:100C9000A2CFAE014F5F5F4FBE016D5F7F4FC501B9
:100CA0000E947305882309F457C0D60155968C918C
:100CB0005597833001F798968C9198978111DBCFE7
:100CC00093965C92939752968C91529796968C93AA
:100CD000969753968C91539797968C939797579690
:100CE0008C91579795968C93C6CFAE014F5F5F4F0F
:100CF000BE016D5F7F4FC5010E947305882361F1BE
:100D0000F60183A1882309F4B6CF828193810097ED
:100D100009F4B1CFDC01ED91FC910190F081E02D5F
:100D20007401D60195960C91959797962C9197976B
:100D300096964C91969794966C9109959CCFF60156
:100D400085858823F9F0813041F1D6011E968D9179
:100D50009C91892B09F48FCF0F900F900F900F90DB
:100D6000DF91CF911F910F91FF90EF90DF90CF9087
:100D7000BF90AF909F908F907F906F905F904F90BB
:100D80003F90089591968C9191978250990B1F9660
:100D90009C938E931E971D965C9229813A818B813C
:100DA0009C81782F692FF60146855785411551059D
:100DB00081F001962115310539F0415051095787CD
:100DC000468721503109EDCF7B836C831A821982CB
:100DD000BCCF9C838B833A8329831586B6CFCF9370
:100DE000DF93EC018C819D81DC01ED91FC9104800D
:100DF000F581E02D6E81099581E08E8F1E821F8E18
:100E000018A219A21AA21CA280E0DF91CF91089526
:100E1000FC01DC01A65ABF4F8C918823A1F0878189
:100E2000681741F0828521E030E0681729F090E0F2
:100E300080E0089530E020E0C901880F991F820FFB
:100E4000931FE80FF91F808591850895FC01878124
:100E5000811104C080859185892B59F0828581118B
:100E600006C08385948521E030E0892B21F080E065
:100E7000089530E020E0C901880F991F820F931F69
:100E8000E80FF91F67835187408781E0089508952F
:100E9000DF92EF92FF920F931F93CF93DF93EC01BA
:100EA00085E0E62EF12CFE01869FE00DF11D112458
:100EB000908596FF24C0192F177001E085E0D82E89
:100EC0008FEF800F8F3008F001E0602F70E0062F69
:100ED000D69EF001D79EF00D1124EC0FFD1F8085EA
:100EE0008695869586958770181701F16F5F7F4FFD
:100EF000603168F38D81811302C011501D8385E03C
:100F00008E9DF0018F9DF00D1124EC0FFD1F1086BA
:100F100081E0818712862296D783C683DF91CF91A5
:100F20001F910F91FF90EF90DF900895CE010E94E6
:100F30004807C6CFFC0120812EBD9B0121503109FD
:100F400041F051810DB407FEFDCF4EB55EBD41931A
:100F5000F5CF61507109860F971F0DB407FEFDCFC5
:100F60002EB5FC0120830895FC0121E0613499F441
:100F70009C01255B3F4F61E0AC014E5F5F4F1586E2
:100F8000668717865487438735962E173F07B9F72C
:100F9000FC01158208953585631729F02F5F35967A
:100FA0002031C9F70895622F0C944807CF93DF933F
:100FB000FC0167FD12C0283080F4442319F08581BC
:100FC000873059F0EF01A1E0B0E08D85882349F129
:100FD00011962596A031B105C1F780E018C085E0D3
:100FE0008A9FE0018B9FD00D1124CE0FDF1F442379
:100FF00089F081E4888785818F5F858325E02A9F3A
:10100000C0012B9F900D1124E80FF91F8085DF91FF
:10101000CF91089581E08887F1CF2770687B622B9C
:101020000FC06623E1F26770660F660F660F4423F8
:10103000A1F3606485818F5F85838770687F682BEB
:1010400025E02A9FC0012B9F900D1124E80FF91F66
:101050006087862FDCCFFC0121E0611102C006967B
:1010600008953585631739F02F5F35962031C9F71C
:1010700090E080E00895069635E0239F800D911D55
:101080001124089590E080E008952E9808952E9AF6
:101090000895FC01838180640C94D00208950F931D
:1010A0001F93CF93DF93D82FC62F8A0180E591E05D
:1010B0000E9413010E944508D260DEBDF8018C2F0A
:1010C000882339F00DB407FEFDCF91919EBD81506C
:1010D000F7CFC00FD12FD11D0DB407FEFDCF0E9459
:1010E0004708CE01DF91CF911F910F9108950F9383
:1010F0001F93CF93DF9300D0CDB7DEB7182F062F05
:1011000080E591E00E9413010E9445081260198356
:101110000A8362E070E0CE0101960E949A070E9465
:1011200047080F900F90DF91CF911F910F91089575
:101130008EBD00000DB407FEFDCF8EB50895CF9390
:10114000C82F80E591E00E9413010E9445088C2F72
:101150000E94980880E00E949808C82F0E944708C3
:101160008C2FCF9108958F929F92AF92BF92CF9282
:10117000DF92EF92FF920F931F93CF93DF93882E0E
:10118000962E5A010E9479036B017C0128E8C20E59
:1011900023E1D21EE11CF11C10E000E0D0E0C0E031
:1011A00098280E9479036C197D098E099F0997FF81
:1011B0001EC0692D80EF0E9477080E9479036C1988
:1011C0007D098E099F0997FF09C088EC0E949F083E
:1011D00087FFF3CF60E888EC0E94770888EF0E94D1
:1011E0009F08C82FCF70C43081F0CE30B9F08C2F5B
:1011F000DF91CF911F910F91FF90EF90DF90CF90F3
:10120000BF90AF909F908F9008950F5F1F4FA114D4
:10121000B10439F20A151B0521F6E9CFDF5FD3309F
:1012200009F0BFCFE4CFAF92BF92CF92DF92EF929F
:10123000FF920F931F93CF93DF93EC01B62EA42E52
:1012400069010E942B087C0186EDE114F10409F488
:1012500047C0D701ED91FC91119787ED309709F4C4
:101260003FC013969C9180E0981731F02081A21620
:1012700029F033968F5FF8CFF0E0E0E0D601ED93F0
:10128000FC938BED309761F12281269526952031D4
:1012900008F02FE081E090E0A0E0B0E004C0880F0B
:1012A000991FAA1FBB1F2A95D2F70197F8019183B6
:1012B00080836B2D80EE0E94770888ED0E949F0846
:1012C000D70114969C91682F697F992329F0CA58F9
:1012D000DF4F68816260682B88ED0E94770880E0AC
:1012E000DF91CF911F910F91FF90EF90DF90CF9002
:1012F000BF90AF90089588EF0E949F08807C803453
:10130000B1F018F4882301F10895803819F0803C79
:10131000C9F0089588ED0E949F0881FD0DC069EC19
:1013200088ED0E94770882E080931B02089588ED83
:101330000E949F0881FDF3CF6BEC88ED0E94770837
:1013400083E0F2CF81E0F0CF61ED88ED0E94770875
:1013500010921B020895EF92FF920F93FC01368DBD
:10136000323018F0348D361302C00E945B180F9192
:10137000FF90EF900895EF92FF920F9302970E94D3
:10138000AB090F91FF90EF9008950895EF92FF92AF
:101390000F931F93422F202F8701DC01ED91FC91C9
:1013A00000A0F1A1E02D09951F910F91FF90EF9002
:1013B000089581E00895FC0184A10895FC018681CF
:1013C000089580E0089581E0089580E0089580E028
:1013D0000895089580E008952091A901283041F4EE
:1013E00081382FEF92075CF0803891055CF4089506
:1013F000811520E8920741F481E090E8089581E8A2
:101400009FEF08958FE790E00895DF92EF92FF92AB
:101410000F931F93CF93DF9300D000D000D01F9283
:10142000CDB7DEB77C018B01D42E9093440380931B
:1014300043037093460360934503409347038091B1
:1014400042038983C7010E94EC098A83C7010E9475
:10145000EC099B83C8010E94EC098C83C8010E949F
:10146000EC099D83DE8280912C0381112CC011E058
:1014700010931F031093200385E293E090932203BF
:1014800080932103109224031092230380EA91E0B9
:1014900090931C0380931B03109227031092260342
:1014A000109229031092280310932A0310932B0300
:1014B00081EC809325030E94F6016BE173E00E94AA
:1014C000310210932C0381E08F8341E050E0BE0194
:1014D000695F7F4F80911E030E94D00297FD0AC072
:1014E00080911E0346E050E0BE016F5F7F4F806435
:1014F0000E94D00227960FB6F894DEBF0FBECDBF74
:10150000DF91CF911F910F91FF90EF90DF900895A1
:10151000CF92DF92FF920F931F93CF93DF93F62E1C
:1015200001E0C82FD0E0CC0FDD1FC650DD4F6E01AB
:1015300088819981DC01ED91FC910280F381E02D9D
:101540002F2D40E060E00995182F803E49F561E0BD
:1015500088EE0E94770866E670E080E090E00E94E6
:101560009E02F60180819181DC01ED91FC91019058
:10157000F081E02D2F2D40E060E00995182F8D308F
:1015800041F58FEF800F833088F061E088EE0E9494
:10159000770866E670E080E090E00E949E0210C04E
:1015A0008D3061F48FEF800F833050F464E670E08B
:1015B00080E090E00E949E020F5FBACF882389F2FC
:1015C000812FDF91CF911F910F91FF90DF90CF90EE
:1015D00008958823A9F3D9CF2F923F924F925F921B
:1015E0006F927F928F929F92AF92BF92CF92DF9233
:1015F000EF92FF920F931F93CF93DF937B013A01FA
:101600006901F901A080B180FB013180F9011182EB
:101610001082FB01828160E181FD60E288EE0E9420
:1016200077082A2CA301F701608180E00E94B308AB
:10163000582EF6E08F1310C088EF0E949F08F70124
:1016400092819D7F84FF9260928360E191FD60E2D0
:1016500088EE0E947708E6CF811150C088EC0E9486
:101660009F0882FF5FC080E30E949F08482E8A1572
:101670001B0411F008F0422CF60180819181E501F4
:10168000C81BD90BD7FF02C0D0E0C0E0842C912C3E
:101690008C169D060CF4E40180E591E00E94130194
:1016A0000E94450888E00E949808AE0170E060E062
:1016B000C8010E949C1E209721F0BE01C8010E9413
:1016C0009A070C0F1D1F0E94470864E088EC0E94D7
:1016D0007708F60180819181880E991E918280821F
:1016E000431420F08A149B0408F49CCF88EF0E94D6
:1016F0009F08F701928184FB91F99283852DDF91F8
:10170000CF911F910F91FF90EF90DF90CF90BF90FE
:10171000AF909F908F907F906F905F904F903F9091
:101720002F90089580EF582EE9CFAF92BF92CF92BD
:10173000DF92EF92FF920F931F93CF93DF9300D02E
:1017400000D0CDB7DEB77C01690158011C821B8235
:101750001A8219828E010F5F1F4F9E012D5F3F4F2E
:101760000E941309811109C049815A816B817C81D2
:1017700085019601C7010E94EC0A0F900F900F900F
:101780000F90DF91CF911F910F91FF90EF90DF901D
:10179000CF90BF90AF9008954F925F926F927F92DB
:1017A0008F929F92AF92BF92CF92DF92EF92FF9271
:1017B0000F931F93CF93DF93CDB7DEB7C254D109F8
:1017C0000FB6F894DEBF0FBECDBFDC0194962C910E
:1017D00021111AC0612C862DCE5BDF4F0FB6F89415
:1017E000DEBF0FBECDBFDF91CF911F910F91FF9054
:1017F000EF90DF90CF90BF90AF909F908F907F90B1
:101800006F905F904F9008957C010E947903F701DB
:10181000878C90A0A1A0B2A0681979098A099B09B8
:1018200097FDD8CF0E947903D70193962C91620F30
:10183000711D811D911DF701678F70A381A392A374
:10184000712C6E01F1E4CF0ED11C30E4832E912C6B
:1018500057018AE5A80EB11CD7015D968C917816C8
:1018600008F0B8CFE72DF0E07296EE0FFF1FEE0FF5
:10187000FF1FEE0DFF1D8081E82FF0E0CF01880FE4
:10188000991FDC01AE0FBF1FAE0DBF1D96962C91A8
:1018900030E0D6012D933C93DE0111962D011D926F
:1018A000AC15BD05E1F7E80FF91FEE0DFF1D820134
:1018B000960145A1F7016681848195810E94950B6F
:1018C000682E811188CFD6018D919C91119781341A
:1018D000910510F08D929C92D701ED91FC9100A0A2
:1018E000F1A1E02D8201D6012C91D5014C91B701D7
:1018F000C7010995D701ED91FC910288F389E02D8C
:10190000D5018C9181116980662DC70109950097D9
:1019100069F0DC01ED91FC910190F081E02D8201F4
:10192000D6012C91D5014C91B7010995739494CFB0
:101930003F924F925F926F927F928F929F92AF925F
:10194000BF92CF92DF92EF92FF920F931F93CF93AC
:10195000DF93CDB7DEB7C254D1090FB6F894DEBF1E
:101960000FBECDBFDC0194962C91222309F4A1C0B7
:101970006C010E947903F601878C90A0A1A0B2A00F
:10198000681979098A099B0997FD93C00E94790318
:10199000D60193962C91620F711D811D911DF60148
:1019A000678F70A381A392A3312C5E01F1E4AF0E87
:1019B000B11C46018AE5880E911CD6015D968C917A
:1019C000381608F076C0E32DF0E07296EE0FFF1F98
:1019D000EE0FFF1FEC0DFD1D6080662009F467C04F
:1019E000712C7301EE0CFF1CF701E60DF71DEC0DD9
:1019F000FD1D86A190E0F50191838083FE01319663
:101A00002F011192EA15FB05E1F7F701E60DF71D2D
:101A1000EC0DFD1D8201950145A1D60116966C9134
:101A2000169714968D919C910E94950B182F8111F9
:101A30003EC0F501808191810097C9F18134910503
:101A400020F080E490E091838083E60CF71CD601BF
:101A5000AE0DBF1DF60180819181FC01608C718CFF
:101A60007201F5010081F401208195964C91B60137
:101A7000C601F3010995D601ED91FC910288F38925
:101A8000E02DD4018C9181111981612FC601099536
:101A9000009769F0DC01ED91FC910190F081E02D5F
:101AA0008201D5012C91D4014C91B6010995339452
:101AB00084CF80E0CE5BDF4F0FB6F894DEBF0FBE61
:101AC000CDBFDF91CF911F910F91FF90EF90DF90ED
:101AD000CF90BF90AF909F908F907F906F905F90CE
:101AE0004F903F9008956F927F928F929F92AF9206
:101AF000BF92CF92DF92EF92FF920F931F93CF93FB
:101B0000DF93CDB7DEB7C254D1090FB6F894DEBF6C
:101B10000FBECDBFDC0194962C91211102C0912CF7
:101B2000A9C07C010E947903F701878C90A0A1A035
:101B3000B2A0681979098A099B0997FDF0CF0E9424
:101B400079036F5F7F4F8F4F9F4FD7015F966D93E4
:101B50007D938D939C9392975D965C9130E020E00D
:101B60002517E8F6C9012F5F3F4FFC01EE0FFF1F5D
:101B7000EE0FFF1FEE0DFF1DEA5BFF4F4081429508
:101B8000469546954370423059F7FC017296EE0F28
:101B9000FF1FEE0FFF1FEE0DFF1D8081E82FF0E00D
:101BA0006E01B1E4CB0ED11CCF01880F991FDC016F
:101BB000AE0FBF1FAE0DBF1D96962C9130E0D60123
:101BC00011963C932E93A054B1095D011D92AC1562
:101BD000BD05E1F7E80FF91FEE0DFF1D8501960128
:101BE00045A1F7016681848195810E94950B982E0D
:101BF000882EE89482F881103DC0D6018D919C9189
:101C000011978134910520F080E490E08D939C93AE
:101C1000F601208131812115310561F13701FAE5A5
:101C20006F0E711CD701ED91FC9100A0F1A1E02D88
:101C30008501D3014C91B701C7010995D701ED91F9
:101C4000FC910288F389E02DD3018C918111898068
:101C5000682DC7010995009769F0DC01ED91FC91B1
:101C60000190F081E02D8501D6012C91D3014C919A
:101C7000B7010995892DCE5BDF4F0FB6F894DEBF13
:101C80000FBECDBFDF91CF911F910F91FF90EF90CD
:101C9000DF90CF90BF90AF909F908F907F906F908C
:101CA00008952F923F924F925F926F927F928F9200
:101CB0009F92AF92BF92CF92DF92EF92FF920F93DB
:101CC0001F93CF93DF93CDB7DEB766970FB6F89427
:101CD000DEBF0FBECDBF3C01442E322E202EEA8A3D
:101CE000CE8AEBA4FCA4CDA4DEA41E861D86188A91
:101CF0001F868E01015F1F4F9E01235F3F4F0E9491
:101D00001309582E81113BC139822A822A892B83DB
:101D10003E893C83BE82AD8298868F82AE014F5F42
:101D20005F4F68E080E20E944F084F855889642D1C
:101D300080E10E94B308811140C1C114D10409F4AB
:101D400053C00D851E85D80112968C91129737FECF
:101D500051C0826012968C93540122242394A114C2
:101D6000B10409F42FC1FC86EB864F8558896D8537
:101D70007E8586019E01255F3F4FC3010E94EC0ACC
:101D8000582EB6E08B130EC088EF0E949F08ED8599
:101D9000FE8585FB882780F98225928180FB91F959
:101DA0009283DDCF8111EBC0EFA5F8A93097A1F0A8
:101DB0006B857C850190F081E02D0190F081E02D14
:101DC000C4018A199B099A8789879E01275F3F4F23
:101DD000A6018FA598A909958B859C85A81AB90A93
:101DE0008E159F0508F0BBCF4F85588937FEE1C09F
:101DF00080EAE0C0816012968C93129711968C90C5
:101E00008FEF880D803408F0DAC02F8438880E9464
:101E100079039B01AC0128573C4E4F4F5F4F2A8BF3
:101E20003B8B4C8B5D8BD80112968C9160E880FFC8
:101E300060E488EE0E947708512C912CE114F104A3
:101E400009F48CC03401E814F90408F437016E8AEF
:101E5000A601662D80E10E944F08662D88E30E944E
:101E60007708F8016081606280EF0E94770888EC53
:101E70000E949F0887FFFBCF60E888EC0E947708EC
:101E800088EF0E949F088F70582E198AB12CA12CC0
:101E9000552021F10E9479032A893B894C895D896B
:101EA000621B730B840B950B97FF18C036E053161B
:101EB00009F440C04EE05416B1F054E0551209C088
:101EC0008FEFA81AB80A2114310491F02A143B04A8
:101ED00079F460E088E30E94770842C0E618F708CA
:101EE000C60CD71CABCF99899F5F998B933089F330
:101EF00060E088E30E947708D6016C9180E10E943F
:101F000077086E8988E30E947708F8016081606233
:101F100080EF0E94770888EC0E949F0887FFFBCF24
:101F200060E888EC0E94770888EF0E949F088F7015
:101F3000582EAECF88EF0E949F0885FB882780F936
:101F4000A1E08A27F801928180FB90F9928360E8F2
:101F500090FF60E488EE0E947708CACF5110B9CF95
:101F600088EF0E949F08D80112969C91129785FBDA
:101F700090F912969C934F8558895520D1F0852D64
:101F800066960FB6F894DEBF0FBECDBFDF91CF913E
:101F90001F910F91FF90EF90DF90CF90BF90AF9087
:101FA0009F908F907F906F905F904F903F902F9079
:101FB000089580E8642D0E94B308582EE0CF8AED82
:101FC000582EDDCF4F855889552009F411CFD7CF32
:101FD0008F929F92AF92BF92CF92EF920F93CF9337
:101FE000DF93CDB7DEB7C054D1090FB6F894DEBF8A
:101FF0000FBECDBF5F934F939E012F5F3F4F3F9327
:102000002F931F9220E42F9320E8822E912C5B01C6
:1020100032E2C32EE12C06E021E840E0FC016681BB
:10202000848195810E94510E0F900F900F900F9018
:102030000F900F90C05CDF4F0FB6F894DEBF0FBE5D
:10204000CDBFDF91CF910F91EF90CF90BF90AF9028
:102050009F908F9008958F929F92AF92BF92CF9250
:10206000EF920F93CF931F921F921F921F921F9276
:102070001F92912C812CB12CA12CC12CE62E05E0B5
:1020800020E040E060E00E94510EC82F6CE271E059
:1020900080E090E00E949E020F900F900F900F90B2
:1020A0000F900F908C2FCF910F91EF90CF90BF900A
:1020B000AF909F908F9008958F929F92AF92BF9212
:1020C000CF92EF920F931F921F923F932F935F93A4
:1020D0004F934A01B12CA12CCC24C394E12C06E0EF
:1020E00020E840E00E94510E0F900F900F900F904B
:1020F0000F900F900F91EF90CF90BF90AF909F9067
:102100008F9008952F923F924F925F926F927F929D
:102110008F929F92AF92BF92CF92DF92EF92FF92F7
:102120000F931F93CF93DF93CDB7DEB7C158D1097B
:102130000FB6F894DEBF0FBECDBFDC0116963C9102
:1021400019ED311114C0B22EA42E162F3C01FC0142
:10215000E480F580D701ED91FC910190F081E02DB4
:1021600060E0C70109952C010097E1F416ED812F7D
:10217000CF57DF4F0FB6F894DEBF0FBECDBFDF9154
:10218000CF911F910F91FF90EF90DF90CF90BF9074
:10219000AF909F908F907F906F905F904F903F9007
:1021A0002F900895FC01C080D180C114D10409F49E
:1021B000C5C11301F5E22F0E311CDC0111963C92D2
:1021C0002E921496BC929E0126593F4F48E050E053
:1021D00060E0F301848195810E945C10082F8111D9
:1021E000B1C1AB960FADAB97D201CD92DC92D701C6
:1021F000ED91FC910280F381E02D2A2D40E0612FCA
:10220000C7010995F301868314ED882309F4AFCF44
:10221000E2969FADE29796A3682F848195810E94F4
:102220002B10182FD701ED91FC91D20114961C921E
:10223000882359F00480F581E02DD30116966C9126
:10224000C7010995F301168292CF0190F081E02D2C
:10225000D30116966C91C7010995009709F486CFB2
:10226000FC01B48201111CC0E4968EAD9FADE497D1
:10227000F301E35AFF4F91838083E6968EAD9FADC5
:10228000E697329791838083D30114968D919C9128
:10229000159716960C9121143104E9F408ED11C03C
:1022A000033108F002E1402F50E09E0126593F4FD4
:1022B000F3016681848195810E945C10082F882338
:1022C00099F2D301ED91FC910480F581E02DC301D9
:1022D0000995102F4CCF602F0E942B08FC01892BF1
:1022E00009F428C1EC96DFACEC970283318220829E
:1022F00081E083832E01F1E44F0E511CC30102964D
:10230000C058DF4F99838883C058D040D20150967F
:10231000EE96BFAFAEAFEE971D1509F489C084E00D
:1023200091E0F20191838083C058DF4FA881B98189
:10233000C058D040B383A2831482118612861586BA
:102340001786168610A211A212A210A6EE968EADC6
:102350009FADEE9796838583908787839487838745
:10236000D30114960D90BC91A02DC258DF4FB983B4
:10237000A883CE57D040F301F6801F921F9281E0D0
:1023800090E08C0F9D1F9F938F931F9299E09F93D6
:1023900049E0842E912CB12CA12C52E0C52EE12EC7
:1023A00006E020E840E06F2DC258DF4F8881998118
:1023B000CE57D0400E94510E082F0F900F900F90D3
:1023C0000F900F900F9081117CCF8B809C805F923B
:1023D0004F92A1E0B0E0AC0FBD1FBF93AF93C4011B
:1023E000B1E48B16910410F080E490E09F938F93FA
:1023F000B12CA12C32E0C32EE12E06E020E840E013
:102400006F2DC258DF4F88819981CE57D0400E94EE
:10241000510E082F0F900F900F900F900F900F906C
:1024200081114FCFF301868D823010F41F5F74CF7E
:10243000D3015E961C915E97123008F481C0169607
:102440000C911697602F14968D919C910E942B08E9
:10245000FC01892B21F002833182208213831F9299
:102460001F921F921F921F921F92912C812CB12CB0
:10247000A12CC12CF301E48C09E020E040E066814E
:10248000848195810E94510E182F0F900F900F900C
:102490000F900F900F9081114FC0F12CD3015D96DA
:1024A0008C915D97F816D8F58F2D90E0FC0172960F
:1024B000EE0FFF1FEE0FFF1FE60DF71D208121110C
:1024C00002C0F394EBCFFC01EE0FFF1FEE0FFF1FD6
:1024D000E60DF71DEA5BFF4F80818770A82EB12CB7
:1024E0001F921F921F921F921F921F92912C812C5C
:1024F000C12CE12C0AE021E240E0F30166818481F5
:1025000095810E94510E082F0F900F900F900F9001
:102510000F900F908823A9F2853099F2D2CEED91D9
:10252000FC910688F789E02DC301099581E0F3014C
:1025300084A31DCE06EDC5CE082FC3CE17ED17CE52
:1025400011ED15CEF201D182C082BBCECF92DF92C7
:10255000EF92FF920F931F93CF93DF936C01EB01E8
:10256000D90128813981C9010196998388832C0D6D
:102570003D1DF9019081FA0190839370933021F110
:102580009C93F80110821182128213824C91442391
:1025900091F0C8017D0150E0688179816C0D7D1D4D
:1025A0000E94931EF701808128813981820F932F29
:1025B000911D99838883DF91CF911F910F91FF9097
:1025C000EF90DF90CF90089584E08C93DACF0F9353
:1025D0001F93CF93DF93EC018B01BA018E819F8112
:1025E0002C813D81AC01400F511F2417350718F491
:1025F0008901081B190B2A813B81A801820F931FB7
:102600000E94931E8E819F81080F191F1F830E83C6
:10261000DF91CF911F910F9108950E948E1E2F92EE
:102620003F924F925F926F927F928F929F92AF9262
:10263000BF92CF92DF92EF92FF920F931F93CF93AF
:10264000DF93CDB7DEB72D970FB6F894DEBF0FBE80
:10265000CDBF4B015D874C871986188619821A8277
:102660001B821C82B12C612C712CE12C412C312C51
:10267000A12C212CD12CC12C888599852C853D85B8
:102680008217930708F067C18E010F5F1F4F9E01ED
:10269000255F3F4FAE01465F5F4FBE01685F7F4FD2
:1026A000C4010E94A6128A85813A11F589819A8116
:1026B000AB81BC810197A105B105D1F4411018C0CF
:1026C0009E01255F3F4FAE01465F5F4FBE01685FD1
:1026D0007F4FC4010E94A6128A85853809F03EC04A
:1026E00089818093AF0138E0C30ED11C4424439408
:1026F0008A85813A09F07CC089819A81AB81BC814D
:10270000892B8A2B8B2B09F073C0E11071C0512CDF
:10271000F12C411031C0E42C512CF12C222009F471
:10272000FFC0AA2009F4FCC07110FAC0C60133E052
:10273000969587953A95E1F720E1F212B4C080931F
:10274000A8018E5F8093AA01F092A9013110DAC02E
:102750007A2CF59CC00CD11C11248ECF893009F045
:102760008BCF89819A81AB81BC810197A105B1058D
:1027700009F4BCCF81CFE42C8A85813819F18E0110
:102780000F5F1F4F9E01255F3F4FAE01465F5F4FBA
:10279000BE01685F7F4FC4010E94A6128A858537FB
:1027A00069F0853969F0853039F789819A81AB8183
:1027B000BC810997A105B105F9F6DDCFF980DCCF21
:1027C0005980DACFEE2009F4A9CFF59C802D112491
:1027D0008093AD01C60143E0969587954A95E1F750
:1027E0008093AE01F59CC00CD11C11244E2C44CF1B
:1027F000512CF12C8A85813809F490CFEE2009F410
:102800008DCF8537D1F0853949F18930B9F4898187
:102810009A81AB81BC8180339105A105B10501F599
:1028200021100CC0E5E0F0E0EC0FFD1FEB0DF11DF9
:1028300088E58083B3942E2C01C0F9808E010F5F50
:102840001F4F9E01255F3F4FAE01465F5F4FBE01A8
:10285000685F7F4FC4010E94A612CCCF5980EECF93
:1028600081339105A105B10569F4A110E7CFE5E039
:10287000F0E0EC0FFD1FEB0DF11D29E52083B39473
:10288000AE2CDCCFC897A105B105C1F63110D6CF6B
:10289000E5E0F0E0EC0FFD1FEB0DF11D37E53083B7
:1028A000B3943E2CCBCF3D8120E0383539F02E81DA
:1028B000283551F12F81283549F522E0280F209342
:1028C000A80120E0393539F02E81293509F12F8111
:1028D000293501F522E0280F2093AA01F092A901E1
:1028E000332009F435CF20E0373539F02E812735F4
:1028F00099F02F81273591F422E0820F8093AB016C
:10290000F092AC017A2C24C021E0D8CF2FEFD6CFA3
:1029100021E0E1CF2FEFDFCF21E0EFCF2FEFEDCFA1
:10292000332009F416CF61100AC0C60123E0969542
:1029300087952A95E1F78093AB01F092AC01632C67
:10294000222009F406CF622CAA2009F402CF6A2CB7
:10295000EE2009F4FECE2D960FB6F894DEBF0FBE22
:10296000CDBFDF91CF911F910F91FF90EF90DF903E
:10297000CF90BF90AF909F908F907F906F905F901F
:102980004F903F902F9008956F927F928F929F92D9
:10299000AF92BF92CF92DF92EF92FF920F931F936D
:1029A000CF93DF93CDB7DEB7CA50D2400FB6F894BD
:1029B000DEBF0FBECDBF7C015B01DC0114968C91A4
:1029C000882309F47CC095E0892E912CCC24C394F3
:1029D000D12CA090AE01A00EB12EB11CF7018281C6
:1029E00090E08C219D21D5012C9130E02C213D21BE
:1029F000232B09F455C0892B99F490914203892F18
:102A00008C29981769F08093420360914503709177
:102A1000460340E080914303909144030E94050ADD
:102A2000CC0CDD1CB1E08B1A910899F6E091AB015A
:102A3000E00FF12FF11D4081A091A801A00FB12F4F
:102A4000B11DE091AA010E0F111D8091A9018031E5
:102A500081F5F5018081F70182838D919C91D801E8
:102A60006D917C91009721F46115710509F4411174
:102A70000E94050AC65FDD4F0FB6F894DEBF0FBE99
:102A8000CDBFDF91CF911F910F91FF90EF90DF901D
:102A9000CF90BF90AF909F908F907F906F90089550
:102AA000892B09F4BDCF909142038C2D8095892309
:102AB000A8CF8C9190E0F801608170E0D3CF8AE0DC
:102AC00091E0CD5FDD4F99838883C350D2406E0182
:102AD000FDEFCF1AFEEFDF0ACB5FDD4FD982C88250
:102AE000C550D24080E091E0C95FDD4F9983888373
:102AF000C750D240C75FDD4F19821882C950D240FB
:102B0000AE014D5F5D4F70E060E0C5010E94E80FCF
:102B1000811173C0C75FDD4F48815981C950D240D0
:102B20008E010F5F1F4FD801F6013801CF018C19BC
:102B30009D098417950718F481918D93F7CFCF5F86
:102B4000DE4F59834883C150D140B801C7010E946C
:102B50000F138091A801882341F08091AA01882356
:102B600021F08091AB01811142C08AE091E0CD5FFC
:102B7000DD4F99838883C350D240CB5FDD4FD9822C
:102B8000C882C550D24080E091E0C95FDD4F998393
:102B90008883C750D240C75FDD4F19821882C95061
:102BA000D240AE014D5F5D4F61E070E0C5010E9413
:102BB000E80F811122C0C75FDD4F48815981C9509C
:102BC000D240F601CF018C199D098417950728F48E
:102BD0008191D8018D938D01F5CFCF5FDE4F598361
:102BE0004883C150D140B301C7010E940F13CF5F8A
:102BF000DE4F88809980C150D140892809F43ACFAE
:102C000081E0F701848336CF1F920F920FB60F92A7
:102C100011248F939F938091E1009091E100937F25
:102C20009093E10083FF0FC01092E90091E0909330
:102C3000EB001092EC0092E39093ED001092D4011F
:102C400098E09093F00082FF22C093E09093E90017
:102C50009091F200992319F09AE39093E8009091F3
:102C6000D101992341F09091D10191509093D101DC
:102C7000911101C05D9A9091D001992341F09091FA
:102C8000D00191509093D001911101C0289A84FFF6
:102C900018C08091E2008E7E81608093E200809176
:102CA000E1008F7E8093E1008091D2018E7E806171
:102CB0008093D2019F918F910F900FBE0F901F9024
:102CC000189580FFF7CF8091E2008E7E806180931F
:102CD000E2008091E1008E7E8093E1008091D2013C
:102CE0008E7E8160E5CF1F920F920FB60F92112456
:102CF000FF920F931F932F933F934F935F936F9385
:102D00007F938F939F93AF93BF93EF93FF93CF9353
:102D1000DF93CDB7DEB76197DEBFCDBF1092E9007C
:102D20008091E80083FF25C068E0CE010A960E94EA
:102D3000890182EF8093E8008A8587FF36C09091F1
:102D4000E80090FFFCCF982F907609F00EC19B858C
:102D50004C855D852C85FD8491112EC0803849F508
:102D60008091D3018093F1001092F1008EEF809357
:102D7000E80061960FB6F894DEBF0FBECDBFDF91BD
:102D8000CF91FF91EF91BF91AF919F918F917F91E3
:102D90006F915F914F913F912F911F910F91FF90F4
:102DA0000F900FBE0F901F9018959EEF9093E80024
:102DB000CACF1092F100D8CF913059F48111D6CFFB
:102DC0004130510599F68091D3018D7F8093D301D5
:102DD000CDCF933049F48111C9CF4130510531F63F
:102DE0008091D3018260F2CF953041F48091E80068
:102DF00080FFFCCF20682093E300B8CF963009F025
:102E000088C00889198982E01092E9001092CF01E8
:102E10001092CE01F8122FC01092CD011092CC0169
:102E20000E94080299E09983FA8291E09E8394E0DF
:102E30009F8390EA988791E399872091CE01309102
:102E4000CF01275F3F4F3C832B838D831092E90096
:102E50001092CF011092CE011093CD010093CC01BE
:102E600049E050E0BE016F5F7F4F80E00E94630148
:102E70000E9408027BCF1093CD010093CC010E94E9
:102E8000F601DC0112960D911C910115110509F452
:102E900098C0D801ED91FC910480F581E02DBE0130
:102EA000665F7F4FC8010995009709F085C0F8015A
:102EB00000851185EACFF3E0FF120CC08C858823D2
:102EC000F9F0823059F46CE087E091E00E9431180B
:102ED00081114CCF81E28093EB004BCF833021F402
:102EE00060E186EF90E0F2CF813021F468E08DEE72
:102EF00090E0ECCF843071F76EE08EED90E0E6CF9D
:102F000068EC70E0FB01449150E080E80E946301AE
:102F10002DCF9730F9F2983021F481E08093F100C1
:102F200025CF993009F022CF8370A1F6E6ECF1E0CD
:102F300081E031E096E32191222371F08093E90052
:102F40003093EB00DF0111972C912093EC009093CC
:102F5000ED008F5F873079F78EE78093EA0010925B
:102F6000EA008C858093D40101CF888999891092D9
:102F7000E9001092CF011092CE019093CD01809381
:102F8000CC010E94F601DC0112960D911C910115F5
:102F9000110509F49FCFD801ED91FC910190F081CA
:102FA000E02DBE01665F7F4FC80109958111DECE1D
:102FB000F80100851185EBCF181619060CF4D6CE52
:102FC00089CFF1E0FF1277CF6CEC70E09BCF1F92BE
:102FD0000F920FB60F9211242F933F938F939F93CD
:102FE000AF93BF938091B1019091B201A091B301D1
:102FF000B091B4013091B00123E0230F2D3758F583
:103000000196A11DB11D2093B0018093B101909351
:10301000B201A093B301B093B4018091B501909136
:10302000B601A091B701B091B8010196A11DB11DE3
:103030008093B5019093B601A093B701B093B80106
:10304000BF91AF919F918F913F912F910F900FBEA4
:103050000F901F90189526E8230F0296A11DB11D11
:10306000D2CFEF92FF920F931F93CF93DF93182F3E
:10307000E92E062F81E0860F880F0E94350183E03C
:103080000E943501F12EC12FDE2DFE0184910E9498
:103090003501182F80E00E943501812329F0219607
:1030A0009C2F9F19901788F3DF91CF911F910F915B
:1030B000FF90EF9008956F927F928F929F92AF92C0
:1030C000BF92CF92DF92EF92FF920F931F93CF9315
:1030D000DF93EC01842F6C8F4D8D70E060E0A82EA3
:1030E000B12C822E912C602E712C641770F56530F6
:1030F000710559F1DB01AA0FBB1FAA0FBB1FFE010F
:10310000EA0FFB1FEA5BFF4F9081392F37703A15AA
:103110001B0409F087C0392F3695369536953770E0
:103120003815190409F07EC092959695969593707E
:103130009615170409F076C06E0196E4C90ED11CED
:10314000CA0EDB1EC114D104F9F4453008F05BC08F
:10315000A4E04A9FA00111246E01B6E4CB0ED11C5D
:10316000C40ED51E2770220F220F220F982F9770A2
:10317000292B902F9295990F990F907C292BF6016E
:1031800020839D8D9F5F9D8FD70113969C911397F0
:10319000937010E0933029F412969C9112E097FD01
:1031A00011E0402F682FE881F981068CF78DE02D22
:1031B000CE010995882339F1112329F18E8D8B30A9
:1031C00010F5282F30E0F901EE0FFF1FE20FF31F7B
:1031D000EC0FFD1FD70112969C9112979F7095A33B
:1031E00014969C91149796A394E097A3C10ED11CBA
:1031F000F601818316968C919BA1981708F48BA3F6
:103200008E8D8F5F8E8FDF91CF911F910F91FF90E9
:10321000EF90DF90CF90BF90AF909F908F907F9076
:103220006F9008956F5F7F4F60CFEF92FF920F9383
:1032300002970E945B180F91FF90EF900895CF9333
:10324000DF93C1E0C0932002C093210282E392E0A9
:10325000909323028093220210922502109224025E
:10326000109229021092280288EE93E0A0E0B0E0CC
:1032700080932A0290932B02A0932C02B0932D02EC
:1032800080E191E090931D0280931C0288E291E01E
:103290009093270280932602C0933302C093340296
:1032A00010923602109235021092380210923702B4
:1032B00010923C0210923B0210923E0210923D028C
:1032C00081EC809332020E94F6016CE172E00E9470
:1032D000310286E991E09093A5028093A4021092B6
:1032E000AC02C093AD021092AE0286EA92E09093D7
:1032F000AB028093AA021092A60288E08093A702F4
:103300008CE38093A8021092A902E4EAF2E021E0A3
:1033100086EA92E0158626871786948783873596F6
:1033200032E0EF3EF307B1F710921A0381E1809388
:103330003F0284EA92E090934A028093490280E43B
:1033400091E0909346028093450284E691E0909349
:103350004802809347021092640210926502109214
:10336000660210926702109268021092690210922F
:103370009F0210924C0210924E0210924D02109237
:103380004F0210925102109250021092520210926B
:10339000540210925302109255021092570210924A
:1033A00056021092580210925A021092590210922C
:1033B0005B0210925D0210925C0210925E0210920B
:1033C000600210925F02ECE8F2E090E080E0DC0145
:1033D000AA0FBB1FAA0FBB1FA557BD4F2C91287367
:1033E0002C9310821182019634968530910579F7DD
:1033F000A5E4B2E090E080E095961C929597382F76
:1034000028E0811120E096962C939697FC01EE0F10
:10341000FF1FEF01C80FD91FC459DD4F28812E7F30
:103420002D7F28833111AFC03FE0E80FF91FE45929
:10343000FD4F330F330F20812370232B2083019600
:1034400013968B309105C1F681E080936302109250
:10345000620210926102EAEFF2E090E080E02191D6
:103460003191232B09F091C0880F991FFC01E65080
:10347000FD4F85E492E0918380838AE691E090930A
:1034800046028093450280E991E090934802809340
:1034900047028AE391E090934102809340021092A8
:1034A000420210924402109242031092440310927E
:1034B00043031092460310924503109247038091F4
:1034C0003A03811113C010923503109234038DE832
:1034D00091E0909337038093360382E490E09093D9
:1034E00039038093380381E080933A0380912C0361
:1034F00081112CC0C1E0C0931F03C093200385E25B
:1035000093E090932203809321031092240310925E
:10351000230380EA91E090931C0380931B03109295
:103520002703109226031092290310922803C093B8
:103530002A03C0932B0381EC809325030E94F6019C
:103540006BE173E00E943102C0932C03E0912603EB
:10355000F0912703309701F584E393E090932703DC
:1035600080932603809128039091290320913803AA
:1035700030913903820F931F90932903809328037E
:10358000DF91CF91089531E050CF019680319105C0
:1035900009F065CF72CFFC01808191810097D9F746
:1035A00084E393E091838083DDCFCF93DF93CDB726
:1035B000DEB765970FB6F894DEBF0FBECDBF789427
:1035C00084B5826084BD84B5816084BD85B5826028
:1035D00085BD85B5816085BD80916E0081608093D9
:1035E0006E00109281008091810082608093810042
:1035F0008091810081608093810080918000816052
:1036000080938000809191008260809391008091EE
:1036100091008160809391008091900081608093FF
:1036200090008091C10084608093C1008091C100AE
:1036300082608093C1008091C10081608093C1004D
:103640008091C30081608093C3008091C00082603C
:103650008093C0008091C20081608093C2008091FD
:103660007A00846080937A0080917A0082608093EF
:103670007A0080917A00816080937A0080917A004C
:10368000806880937A001092D4011092D301109236
:10369000D2018091D70081608093D70080EA809327
:1036A000D80089B5806189BD89B5826089BD09B4BA
:1036B00000FEFDCF61E070E080E090E00E949E029D
:1036C0008091D8008F7C80618093D8008091E00049
:1036D000807F8093E0008091E1008E7E8093E10006
:1036E0008DE08093E200559A209A269A0E9447081E
:1036F0001FB7F8948091D50181115AC040E651E07E
:10370000FA0194912FE731E0F9018491E92FF0E07B
:10371000EE0FFF1FEF5BFE4FA591B4919C918923A3
:1037200009F037C0E5E2F1E09491F9012491FA0142
:103730008491882309F42DC09923E9F091509F309A
:10374000D0F4E92FF0E0E955F44E0C94881E551C96
:10375000591CB61B4D1C511CBB1BBB1BBB1B5C1C53
:10376000621C661C6A1C701CBB1B741C9091800040
:103770009F7790938000E82FF0E0EE0FFF1FED5C45
:10378000FE4FA591B4918FB7F8949C91292B2C935F
:103790008FBF81E10E9416018CB580618CBD8CB514
:1037A00080648CBD8FE00E94160180E10E941601AA
:1037B0008091D5018F5F8093D5011FBF209A289AF1
:1037C000259868E188E80E94770860E288E70E940F
:1037D000770860E088E70E94770810E000E088E65C
:1037E0000E949F080F5F1F4F80FF84C061EC88ED2F
:1037F0000E94770860E680ED0E94770864E088EE1A
:103800000E94770888EE0E949F0882FFFBCF0E94EB
:103810007B0960E288EC0E94770861E080E80E9402
:10382000770840E452E060E085E492E00E942607D9
:103830008AED91E090933A028093390280E490E01F
:10384000909336028093350210923802109237021C
:103850004E0183E1880E911C08E083B1182F10728D
:1038600085FD0CC088EC0E949F0885FF03C00E9464
:103870007B0910E2612F88EC0E94770880911B027F
:10388000813009F442C008F444C0823009F49DC07C
:10389000833009F448C010E05DC0909180009F7DA6
:1038A00068CF90918000977F64CF94B59F7794BD47
:1038B00062CF94B59F7DFBCF909190009F779093BE
:1038C000900059CF909190009F7DF9CF90919000FA
:1038D000977FF5CF9091C0009F779093C0004BCF1A
:1038E0009091C0009F7DF9CF9091C200977F9093F7
:1038F000C20041CF0F3F100709F071CF68EC70E0B4
:1039000080E090E00E949E028CCF93E190933F0272
:10391000C2CF80913F02807F803109F4BCCFA1E10A
:10392000A0933F02B8CF11E080913F02807F8031A9
:1039300089F40E94790368537F4F8F4F9F4F6093A4
:10394000D6017093D7018093D8019093D901B0E24A
:10395000B0933F029AEFE92E92E0F92E6701F6014B
:10396000819191916F01009739F0DC01ED91FC910B
:103970000680F781E02D0995BAE1CB16B3E0DB06AE
:1039800071F780913F02803409F456C000F580320F
:10399000E9F1803309F44AC0813109F05DC0109229
:1039A0001A03F701819191917F01009739F0DC01B1
:1039B000ED91FC910480F581E02D0995CE14DF0492
:1039C00081F782E180933F0247C010E0ADCF81359F
:1039D00009F465C0803809F475C08035E9F588ECD4
:1039E0000E949F0886FF38C081E580933F020E94B5
:1039F00079036C5E7F4F8F4F9F4F6093D60170931A
:103A0000D7018093D8019093D90126C00E947903F1
:103A1000C090D601D090D701E090D801F090D901A4
:103A20006C197D098E099F0997FD16C061E088EE2B
:103A30000E94770880E4C6CF88EE0E949F0880FD30
:103A40000BC088ED0E949F08682F686088ED0E9477
:103A50007708B0E5B0933F02809137029091380229
:103A600018161906A4F48091DA01893F09F01DC1E6
:103A700040E450E06AED71E08CE192E00E94490878
:103A800091E090931A021092380210923702A0E04F
:103A9000B0E0AB2B09F4E1CE0E940000DDCE0E9425
:103AA00079034090D6015090D7016090D801709072
:103AB000D901641975098609970997FDCDCF80E86A
:103AC00080933F021B8A0C8BECE3ED8BC090AA0223
:103AD000D090AB029092AB028092AA021093AE02F9
:103AE0009E012F5F3F4F42E150E060E084EA92E0A8
:103AF0000E945C10582ED092AB02C092AA02811193
:103B000051C069847A84AB84BC843D802E808AEF66
:103B1000C82E82E0D82E412CD6018D919C91009721
:103B200009F042C04394B2E0CB0ED11CE0E14E124A
:103B3000F3CFF70180819181009709F079C0539408
:103B4000F2E0EF0EF11C80E15812F3CF8091AA024F
:103B50009091AB02892B09F459C01093AE0220E07A
:103B600040E060E084EA92E00E94D607F82E8823C5
:103B700009F44CC0682F84EA92E00E942B08009759
:103B800009F444C0FC0114836F2D84EA92E00E9482
:103B90002B10582E882309F486C06F2D84EA92E0FA
:103BA0000E94B407852D2FC0DC01ED91FC910084AB
:103BB000F185E02D09958111B5CFF60180819181C4
:103BC000DC01ED91FC910088F189E02D622D0995D1
:103BD000882309F4A7CFF60180819181DC01ED9162
:103BE000FC910484F585E02DA501B3010995882396
:103BF00089F0612F842D0E94880A813D09F492CFBB
:103C0000882309F450C0823D09F426CFF0EAF093EE
:103C10003F0222CFF60180819181DC01ED91FC9180
:103C20000684F785E02D632D09958111E2CF7ACFC7
:103C3000DC01ED91FC910084F185E02D0995811165
:103C40007ECFF70180819181DC01ED91FC910088AC
:103C5000F189E02D622D0995811109C0612F852D13
:103C60000E94880A982F977F913D51F668CFF701FF
:103C700080819181DC01ED91FC910484F585E02D3A
:103C8000A501B301099581115ACFF7018081918176
:103C9000DC01ED91FC910684F785E02D632D0995FB
:103CA0008823E1F24CCF80E98DCE90911A029923BE
:103CB00009F4E9CE80FF1EC010914203812F81607C
:103CC00080934203609145037091460340E08091E8
:103CD0004303909144030E94050A109342036091AC
:103CE00045037091460340E0809143039091440363
:103CF0000E94050A6091DD01062E000C770B809171
:103D0000DB0140E0082E000C990B0E94050ABBCE97
:103D1000EE0FFF1F0590F491E02D099481E090E0F3
:103D2000F8940C94A31EFB01DC0102C001900D92DB
:103D300041505040D8F70895DC0101C06D934150C7
:0A3D40005040E0F70895F894FFCF1B
:103D4A0000000000AE0500000000E71200000000BD
:103D5A008503F703DA03A4049C0477045B045A047A
:103D6A0040044908F6FF00005604C90142085904F4
:103D7A0094049104740400000000C41400000000BC
:103D8A008210EA09EF06980CDE09E909E709E50954
:103D9A00E30908072607E1094707DB095B180D1342
:103DAA00FEFF00001519000000008210EA09EF0664
:103DBA00730DDE09E909E709E509E309080726079A
:103DCA00E109C609DB09AB09D909C509FEFF0000EB
:103DDA00BB09000000002B08D607B407000000004A
:083DEA00AB042405E904CE043A
:00000001FF
